:100000000C9449000C9471000C9471000C947100D4
:100010000C9471000C9471000C9471000C9471009C
:100020000C9471000C9471000C9471000C9471008C
:100030000C9471000C9471000C9471000C9471007C
:100040000C94CE020C9471000C943E030C94180393
:100050000C9471000C9471000C9471000C9471005C
:100060000C9471000C94710004040404040404044E
:100070000202020202020303030303030102040853
:100080001020408001020408102001020408102002
:10009000700311241FBECFEFD8E0DEBFCDBF11E04B
:1000A000A0E0B1E0E0E5FFE002C005900D92AC36C3
:1000B000B107D9F722E0ACE6B1E001C01D92A5324C
:1000C000B207E1F710E0C9E4D0E004C02197FE01D7
:1000D0000E94A007C834D107C9F70E94BD030C9441
:1000E000A6070C9400003FB7F8948091710190919D
:1000F0007201A0917301B091740126B5A89B05C04F
:100100002F3F19F00196A11DB11D3FBFBA2FA92F96
:10011000982F8827BC01CD01620F711D811D911D93
:1001200042E0660F771F881F991F4A95D1F70895FF
:10013000AF92BF92CF92DF92EF92FF920F931F93F5
:10014000CF93DF936C017B018B01040F151FEB0133
:100150005E01AE18BF08C017D10759F06991D601EA
:10016000ED91FC910190F081E02DC6010995892B5C
:1001700079F7C501DF91CF911F910F91FF90EF901B
:10018000DF90CF90BF90AF900895FC01538D448DC8
:10019000252F30E0842F90E0821B930B541710F032
:1001A000CF96089501970895FC01918D828D98173F
:1001B00061F0A28DAE0FBF2FB11D5D968C91928D17
:1001C0009F5F9F73928F90E008958FEF9FEF089548
:1001D000FC01918D828D981731F0828DE80FF11D11
:1001E000858D90E008958FEF9FEF0895FC01918D2C
:1001F000228D892F90E0805C9F4F821B91098F7325
:100200009927089585E791E00E94F60021E0892B67
:1002100009F420E0822F089580E090E0892B29F0F6
:100220000E94020181110C9400000895FC01A48D2C
:10023000A80FB92FB11DA35ABF4F2C91848D90E008
:1002400001968F739927848FA689B7892C93A089EB
:10025000B1898C91837080648C93938D848D981375
:1002600006C00288F389E02D80818F7D8083089508
:10027000EF92FF920F931F93CF93DF93EC0181E0F6
:10028000888F9B8D8C8D98131AC0E889F98980819D
:1002900085FF15C09FB7F894EE89FF896083E889D0
:1002A000F98980818370806480839FBF81E090E0C2
:1002B000DF91CF911F910F91FF90EF900895F62E4F
:1002C0000B8D10E00F5F1F4F0F731127E02E8C8DE9
:1002D0008E110CC00FB607FCFACFE889F98980812E
:1002E00085FFF5CFCE010E941601F1CFEB8DEC0F0B
:1002F000FD2FF11DE35AFF4FF0829FB7F8940B8F4B
:10030000EA89FB8980818062CFCFCF93DF93EC01B4
:10031000888D8823B9F0AA89BB89E889F9898C91ED
:1003200085FD03C0808186FD0DC00FB607FCF7CFA9
:100330008C9185FFF2CF808185FFEDCFCE010E94A9
:100340001601E9CFDF91CF910895FC0101900020C3
:10035000E9F73197AF01481B590BBC0185E791E0E4
:100360000C9498008F929F92AF92BF920F931F931D
:10037000CF93DF93CDB7DEB7A1970FB6F894DEBF6A
:100380000FBECDBF19A2423008F44AE08E010F5DC6
:100390001F4F842E912CB12CA12CA50194010E94F9
:1003A000A505E62FB901CA01EA30F4F4E05DD801F1
:1003B000EE938D01232B242B252B79F790E080E001
:1003C000109719F0CD010E94A501A1960FB6F894DF
:1003D000DEBF0FBECDBFDF91CF911F910F91BF90B8
:1003E000AF909F908F900895E95CE1CFCF93DF931A
:1003F0000E94A501EC0186E191E00E94A5018C0F0D
:100400009D1FDF91CF9108954F925F926F927F92DF
:100410008F929F92AF92BF92CF92DF92EF92FF9214
:100420006B017C01AC019B010E949B078823C1F0FA
:1004300089E191E00E94A5017C0186E191E00E94A2
:10044000A5018E0D9F1DFF90EF90DF90CF90BF9084
:10045000AF909F908F907F906F905F904F90089596
:1004600046015701E894B7F82FEF3FEF4FE75FE7FA
:10047000C501B4010E949B0781110DC02FEF3FEF12
:100480004FE75FE7C501B4010E94430618161CF44C
:100490008DE191E0CFCF2FEF3FEF4FE75FE4C70152
:1004A000B6010E94290718161CF481E291E0C2CF20
:1004B0002FEF3FEF4FE75FECC701B6010E94430605
:1004C00087FDF3CF20E030E0A901C701B6010E940B
:1004D0004306B12CA12C87FF0AC06DE285E791E0AD
:1004E0000E9438015C01F7FAF094F7F8F0942AE0E2
:1004F00037ED43EA5BE3C701B6010E94D7052B0144
:100500003C010E9448066B017C010E9477069B011A
:10051000AC01C301B2010E94D6052B013C014AE0A7
:10052000C701B6010E94B2017C01EA0CFB1C6EE21D
:1005300085E791E00E943801E80EF91E20E030E0E6
:1005400040E251E4C301B2010E942E072B013C019D
:100550000E9448064B01B12CA12C4AE0C501B40110
:100560000E94B201E80EF91EC501B4010E9477068F
:100570009B01AC01C301B2010E94D60520E030E02E
:1005800040E251E40E942E070E94480690E080E07D
:100590004AE00E94B201E80EF91E4FCF1F920F925F
:1005A0000FB60F9211242F933F938F939F93AF9386
:1005B000BF9380916D0190916E01A0916F01B091F8
:1005C000700130916C0123E0230F2D3758F501960F
:1005D000A11DB11D20936C0180936D0190936E015C
:1005E000A0936F01B093700180917101909172019D
:1005F000A0917301B09174010196A11DB11D80936A
:10060000710190937201A0937301B0937401BF9133
:10061000AF919F918F913F912F910F900FBE0F90AF
:100620001F90189526E8230F0296A11DB11DD2CF69
:100630001F920F920FB60F9211242F933F934F9357
:100640005F936F937F938F939F93AF93BF93EF933A
:10065000FF9385E791E00E941601FF91EF91BF9112
:10066000AF919F918F917F916F915F914F913F914A
:100670002F910F900FBE0F901F9018951F920F9201
:100680000FB60F9211242F938F939F93EF93FF93A5
:10069000E0918501F09186018081E0918B01F091DC
:1006A0008C0182FD1BC0908180918E018F5F8F73C2
:1006B00020918F01821741F0E0918E01F0E0EB581C
:1006C000FE4F958F80938E01FF91EF919F918F91B7
:1006D0002F910F900FBE0F901F9018958081F4CF2F
:1006E000E5E7F1E01382128288EE93E0A0E0B0E04B
:1006F00084839583A683B78388E091E09183808388
:1007000085EC90E09587848784EC90E097878687D6
:1007100080EC90E0918B808B81EC90E0938B828BCE
:1007200082EC90E0958B848B86EC90E0978B868BA7
:10073000118E128E138E148EA2E1B2E082E0159615
:100740008C93159786E116968C931697EEE7F0E05A
:10075000E4911796EC931797EAE6F0E0E491189687
:10076000EC93189740E85EE360E070E01D964D93CF
:100770005D936D937C9350970895789484B58260CF
:1007800084BD84B5816084BD85B5826085BD85B535
:10079000816085BD80916E00816080936E001092B3
:1007A000810080918100826080938100809181002E
:1007B00081608093810080918000816080938000BF
:1007C0008091B10084608093B1008091B00081601D
:1007D0008093B00080917A00846080937A00809149
:1007E0007A00826080937A0080917A0081608093A1
:1007F0007A0080917A00806880937A001092C1001C
:10080000E0918501F091860182E08083E091810191
:10081000F09182011082E0918301F09184018FECCC
:10082000808310928D01E0918901F0918A0186E028
:100830008083E0918701F0918801808180618083CD
:10084000E0918701F0918801808188608083E09148
:100850008701F0918801808180688083E091870121
:10086000F091880180818F7D8083C0E0D0E00E947C
:100870001B052B013C010E941B056B017C010E94A2
:100880001B054B015C0188E191E00E94F60185E2C5
:1008900091E00E94A501C301B2012EE031E040E0E9
:1008A00050E00E947305625E7F4F8F4F9F4F0E9402
:1008B00079060E94040289E391E00E94F60188E132
:1008C00091E00E94F60188E191E00E94F6018FE339
:1008D00091E00E94A501C501B40124E630E040E0AA
:1008E00050E00E94730568537F4F8F4F9F4F0E94C7
:1008F00079060E9404028EE491E00E94F60188E1EC
:1009000091E00E94F60188E191E00E94F60180E604
:1009100091E00E94A501C701B6012CE330E040E060
:1009200050E00E9473056C597F4F8F4F9F4F0E947C
:1009300079060E94040288E191E00E94F6010E947B
:1009400073004B015C0180E9C82EDD24D394E12CB7
:10095000F12C0E947300681979098A099B09683E85
:10096000734081059105A8F321E0C21AD108E1087E
:10097000F10888EE880E83E0981EA11CB11CC114FA
:10098000D104E104F10429F7209709F470CF0E9403
:100990000201882309F46BCF0E94000068CF8F9278
:1009A0009F92AF92BF92CF92DF92EF92FF92CF933E
:1009B000DF93EC01688179818A819B8161157105E2
:1009C0008105910521F464E279ED8BE597E02DE155
:1009D00033EF41E050E00E94730549015A019B0149
:1009E000AC01A7EAB1E40E9492056B017C01ACEE78
:1009F000B4EFA50194010E94A005C60ED71EE81E03
:100A0000F91EF7FE06C081E0C81AD108E10880E8A7
:100A1000F80AC882D982EA82FB82C701B6019F77B1
:100A2000DF91CF91FF90EF90DF90CF90BF90AF908C
:100A30009F908F9008958F929F92AF92BF92CF9286
:100A4000DF92EF92FF92609100017091010180911D
:100A5000020190910301611571058105910521F451
:100A600064E279ED8BE597E02DE133EF41E050E072
:100A70000E94730549015A019B01AC01A7EAB1E448
:100A80000E9492056B017C01ACEEB4EFA5019401CC
:100A90000E94A005C60ED71EE81EF91EF7FE06C06E
:100AA00081E0C81AD108E10880E8F80AC092000184
:100AB000D0920101E0920201F0920301C701B60158
:100AC0009F77FF90EF90DF90CF90BF90AF909F9077
:100AD0008F9008956093000170930101809302014B
:100AE000909303010895052E97FB1EF400940E9435
:100AF0008A0557FD07D00E94A50507FC03D04EF4D8
:100B00000C948A0550954095309521953F4F4F4F55
:100B10005F4F089590958095709561957F4F8F4FA9
:100B20009F4F08950E94C705A59F900DB49F900DFB
:100B3000A49F800D911D11240895B7FF0C94920578
:100B40000E949205821B930B0895A1E21A2EAA1B04
:100B5000BB1BFD010DC0AA1FBB1FEE1FFF1FA2176D
:100B6000B307E407F50720F0A21BB30BE40BF50B6A
:100B7000661F771F881F991F1A9469F760957095F3
:100B8000809590959B01AC01BD01CF010895A29F76
:100B9000B001B39FC001A39F700D811D1124911D51
:100BA000B29F700D811D1124911D08955058BB27CF
:100BB000AA270E94EE050C94EF060E94E10638F089
:100BC0000E94E80620F039F49F3F19F426F40C94B3
:100BD000DE060EF4E095E7FB0C94D806E92F0E94A0
:100BE000000758F3BA17620773078407950720F0C8
:100BF00079F4A6F50C9422070EF4E0950B2EBA2F8B
:100C0000A02D0B01B90190010C01CA01A001112412
:100C1000FF27591B99F0593F50F4503E68F11A16BE
:100C2000F040A22F232F342F4427585FF3CF46954F
:100C300037952795A795F0405395C9F77EF41F1671
:100C4000BA0B620B730B840BBAF09150A1F0FF0F3B
:100C5000BB1F661F771F881FC2F70EC0BA0F621F27
:100C6000731F841F48F4879577956795B795F79517
:100C70009E3F08F0B0CF9395880F08F09927EE0FAC
:100C80009795879508950E94B40608F481E0089529
:100C90000E94080788F09F5798F0B92F9927B751FD
:100CA000B0F0E1F0660F771F881F991F1AF0BA9510
:100CB000C9F714C0B13091F00E942207B1E0089545
:100CC0000C942207672F782F8827B85F39F0B93F37
:100CD000CCF3869577956795B395D9F73EF49095C3
:100CE0008095709561957F4F8F4F9F4F0895E89441
:100CF00009C097FB3EF490958095709561957F4F64
:100D00008F4F9F4F9923A9F0F92F96E9BB27939511
:100D1000F695879577956795B795F111F8CFFAF421
:100D2000BB0F11F460FF1BC06F5F7F4F8F4F9F4F52
:100D300016C0882311F096E911C0772321F09EE8B0
:100D4000872F762F05C0662371F096E8862F70E016
:100D500060E02AF09A95660F771F881FDAF7880FF0
:100D60009695879597F90895990F0008550FAA0B46
:100D7000E0E8FEEF16161706E807F907C0F01216AE
:100D80001306E407F50798F0621B730B840B950BB1
:100D900039F40A2661F0232B242B252B21F4089506
:100DA0000A2609F4A140A6958FEF811D811D0895A3
:100DB00097F99F6780E870E060E008959FEF80EC0E
:100DC000089500240A9416161706180609060895B1
:100DD00000240A9412161306140605060895092E17
:100DE0000394000C11F4882352F0BB0F40F4BF2B86
:100DF00011F460FF04C06F5F7F4F8F4F9F4F0895C6
:100E000057FD9058440F551F59F05F3F71F04795BB
:100E1000880F97FB991F61F09F3F79F087950895A0
:100E2000121613061406551FF2CF4695F1DF08C0BF
:100E3000161617061806991FF1CF869571056105DC
:100E400008940895E894BB2766277727CB0197F984
:100E500008950E94B40608F48FEF08950E94410798
:100E60000C94EF060E94E10638F00E94E80620F09C
:100E7000952311F00C94D8060C94DE0611240C94E2
:100E800023070E94000770F3959FC1F3950F50E070
:100E9000551F629FF001729FBB27F00DB11D639F2C
:100EA000AA27F00DB11DAA1F649F6627B00DA11DD2
:100EB000661F829F2227B00DA11D621F739FB00D78
:100EC000A11D621F839FA00D611D221F749F3327E8
:100ED000A00D611D231F849F600D211D822F762F81
:100EE0006A2F11249F5750409AF0F1F088234AF05E
:100EF000EE0FFF1FBB1F661F771F881F91505040CA
:100F0000A9F79E3F510580F00C94D8060C94230756
:100F10005F3FE4F3983ED4F3869577956795B79550
:100F2000F795E7959F5FC1F7FE2B880F911D96956A
:100F3000879597F908950E94B406880B990B089538
:100F4000EE0FFF1F0590F491E02D0994F894FFCF68
:100F5000010000000000000038019800C500850174
:100F6000F600D400E8000D0A006E616E00696E663E
:100F7000006F766600416363656C61726174652021
:100F80005370656564203D20006B6D2F68720054BE
:100F9000656D7065726174757265203D20006465D1
:100FA000677265652063656E746967726174650058
:0C0FB00048756D6964697479203D20006B
:00000001FF
