:100000000C9435000C945D000C945D000C945D0024
:100010000C945D000C945D000C945D000C945D00EC
:100020000C945D000C945D000C945D000C945D00DC
:100030000C945D000C945D000C945D000C945D00CC
:100040000C94CC020C945D000C943C030C941603AD
:100050000C945D000C945D000C945D000C945D00AC
:100060000C945D000C945D00EB0411241FBECFEFD7
:10007000D8E0DEBFCDBF11E0A0E0B1E0E6ECF0E1FA
:1000800002C005900D92A83FB107D9F722E0A8EF72
:10009000B1E001C01D92AE3AB207E1F710E0C5E34E
:1000A000D0E004C02197FE010E945B08C433D10751
:1000B000C9F70E946E030C9461080C9400003FB7CE
:1000C000F89480910D0290910E02A0910F02B091D0
:1000D000100226B5A89B05C02F3F19F00196A11D5F
:1000E000B11D3FBFBA2FA92F982F8827BC01CD0182
:1000F000620F711D811D911D42E0660F771F881FE1
:10010000991F4A95D1F70895AF92BF92CF92DF928F
:10011000EF92FF920F931F93CF93DF936C017B01BC
:100120008B01040F151FEB015E01AE18BF08C0174D
:10013000D10759F06991D601ED91FC910190F081C0
:10014000E02DC6010995892B79F7C501DF91CF9183
:100150001F910F91FF90EF90DF90CF90BF90AF90E5
:100160000895FC01538D448D252F30E0842F90E0BD
:10017000821B930B541710F0CF96089501970895A2
:10018000FC01918D828D981761F0A28DAE0FBF2F6B
:10019000B11D5D968C91928D9F5F9F73928F90E0C1
:1001A00008958FEF9FEF0895FC01918D828D981730
:1001B00031F0828DE80FF11D858D90E008958FEF6D
:1001C0009FEF0895FC01918D228D892F90E0805C36
:1001D0009F4F821B91098F739927089581E192E0C7
:1001E0000E94E20021E0892B09F420E0822F08958B
:1001F00080E090E0892B29F00E94EE0081110C94A0
:1002000000000895FC01A48DA80FB92FB11DA35AB9
:10021000BF4F2C91848D90E001968F739927848F26
:10022000A689B7892C93A089B1898C918370806449
:100230008C93938D848D981306C00288F389E02DEA
:1002400080818F7D80830895EF92FF920F931F939B
:10025000CF93DF93EC0181E0888F9B8D8C8D981379
:100260001AC0E889F989808185FF15C09FB7F89485
:10027000EE89FF896083E889F989808183708064D1
:1002800080839FBF81E090E0DF91CF911F910F911C
:10029000FF90EF900895F62E0B8D10E00F5F1F4F2B
:1002A0000F731127E02E8C8D8E110CC00FB607FC3A
:1002B000FACFE889F989808185FFF5CFCE010E94C8
:1002C0000201F1CFEB8DEC0FFD2FF11DE35AFF4F33
:1002D000F0829FB7F8940B8FEA89FB898081806256
:1002E000CFCFCF93DF93EC01888D8823B9F0AA8913
:1002F000BB89E889F9898C9185FD03C0808186FDE1
:100300000DC00FB607FCF7CF8C9185FFF2CF80812F
:1003100085FFEDCFCE010E940201E9CFDF91CF91A1
:100320000895FC0101900020E9F73197AF01481BC7
:10033000590BBC0181E192E00C9484008F929F9252
:10034000AF92BF920F931F93CF93DF93CDB7DEB7DA
:10035000A1970FB6F894DEBF0FBECDBF19A24230F1
:1003600008F44AE08E010F5D1F4F842E912CB12CB2
:10037000A12CA50194010E94EE05E62FB901CA0146
:10038000EA30F4F4E05DD801EE938D01232B242BA9
:10039000252B79F790E080E0109719F0CD010E94AD
:1003A0009101A1960FB6F894DEBF0FBECDBFDF91CD
:1003B000CF911F910F91BF90AF909F908F90089514
:1003C000E95CE1CFCF93DF930E949101EC0186E1DC
:1003D00091E00E9491018C0F9D1FDF91CF910895B4
:1003E0004F925F926F927F928F929F92AF92BF9245
:1003F000CF92DF92EF92FF920F931F93CF936B01F7
:100400007C01742EAC019B010E945608882399F050
:1004100089E191E0CF911F910F91FF90EF90DF90D4
:10042000CF90BF90AF909F908F907F906F905F9094
:100430004F900C94910146015701E894B7F82FEFC3
:100440003FEF4FE75FE7C501B4010E9456088111F5
:100450000DC02FEF3FEF4FE75FE7C501B4010E94EA
:100460008C0618161CF48DE191E0D4CF2FEF3FEFEE
:100470004FE75FE4C701B6010E94E40718161CF4B9
:1004800081E291E0C7CF2FEF3FEF4FE75FECC7016D
:10049000B6010E948C0687FDF3CF20E030E0A90171
:1004A000C701B6010E948C0610E000E087FF0AC079
:1004B0006DE281E192E00E9424018C01F7FAF09450
:1004C000F7F8F094C0E060E070E080E09FE37C1615
:1004D00041F020E030E040E251E40E949106CF5F1D
:1004E000F6CFA70196010E9420062B013C010E9435
:1004F00003074B015C014AE00E949E017C01E00E73
:10050000F11ECC23C1F1C501B4010E9432079B0149
:10051000AC01C301B2010E941F064B015C016EE2F7
:1005200081E192E00E942401E80EF91EC15018F109
:1005300020E030E040E251E4C501B4010E94E90747
:100540002B013C010E9403074B01B12CA12C4AE076
:10055000C501B4010E949E01E80EF91EC501B40157
:100560000E9432079B01AC01C301B2010E941F0629
:100570004B015C01DBCFC701CF911F910F91FF9021
:10058000EF90DF90CF90BF90AF909F908F907F9033
:100590006F905F904F9008951F920F920FB60F9239
:1005A00011242F933F938F939F93AF93BF93809189
:1005B000090290910A02A0910B02B0910C023091B5
:1005C000080223E0230F2D3758F50196A11DB11D18
:1005D000209308028093090290930A02A0930B02D1
:1005E000B0930C0280910D0290910E02A0910F0227
:1005F000B09110020196A11DB11D80930D02909340
:100600000E02A0930F02B0931002BF91AF919F9181
:100610008F913F912F910F900FBE0F901F901895C3
:1006200026E8230F0296A11DB11DD2CF1F920F9273
:100630000FB60F9211242F933F934F935F936F93B5
:100640007F938F939F93AF93BF93EF93FF9381E13A
:1006500092E00E940201FF91EF91BF91AF919F91B3
:100660008F917F916F915F914F913F912F910F905B
:100670000FBE0F901F9018951F920F920FB60F92FA
:1006800011242F938F939F93EF93FF93E091210277
:10069000F09122028081E0912702F091280282FDF0
:1006A0001BC0908180912A028F5F8F7320912B0253
:1006B000821741F0E0912A02F0E0EF5EFD4F958F46
:1006C00080932A02FF91EF919F918F912F910F902C
:1006D0000FBE0F901F9018958081F4CF789484B549
:1006E000826084BD84B5816084BD85B5826085BD2E
:1006F00085B5816085BD80916E00816080936E00BC
:1007000010928100809181008260809381008091AD
:10071000810081608093810080918000816080935E
:1007200080008091B10084608093B1008091B0001E
:1007300081608093B00080917A00846080937A0019
:1007400080917A00826080937A0080917A00816043
:1007500080937A0080917A00806880937A0010926A
:10076000C100E0912102F091220282E08083E091B9
:100770001D02F0911E021082E0911F02F0912002F2
:100780008FEC808310922902E0912502F0912602DD
:1007900086E08083E0912302F091240280818061D1
:1007A0008083E0912302F09124028081886080831D
:1007B000E0912302F0912402808180688083E0919F
:1007C0002302F091240280818F7D808385E291E075
:1007D0000E94E20194E6492E512C612C712CC0E05C
:1007E000D0E00E94640528E037E040E050E00E943D
:1007F000BC0568537F4F8F4F9F4F0E943407609313
:1008000004027093050280930602909307020E94EF
:10081000640528EC30E040E050E00E94BC05605EDA
:100820007C4F8F4F9F4F0E9434076093000270935C
:10083000010280930202909303020E9464052CE35C
:1008400030E040E050E00E94BC056C597F4F8F4F74
:100850009F4F0E9434076093FC017093FD018093C9
:10086000FE019093FF010E946405A30192010E9482
:10087000BC0568537F4F8F4F9F4F0E943407609392
:10088000F8017093F9018093FA019093FB018BE4D6
:1008900091E00E94910160910402709105028091A3
:1008A00006029091070242E00E94F00120E030E051
:1008B0004AE754E4609104027091050280910602B7
:1008C000909107020E94E40718160CF07DC088E1A1
:1008D00091E00E94E20189E691E00E94910188E1A5
:1008E00091E00E94E20181EA91E00E949101609111
:1008F000000270910102809102029091030242E095
:100900000E94F00188E191E00E94E20188E191E01B
:100910000E94E20180EC91E00E9491016091FC0153
:100920007091FD018091FE019091FF0142E00E94D3
:10093000F00188E191E00E94E20188E191E00E94EB
:10094000E2018CED91E00E9491016091F8017091BB
:10095000F9018091FA019091FB0142E00E94F001BF
:1009600088E191E00E94E2010E945F004B015C017E
:1009700080E9C82EDD24D394E12CF12C0E945F0085
:10098000681979098A099B09683E734081059105B8
:10099000A8F321E0C21AD108E108F10888EE880E18
:1009A00083E0981EA11CB11CC114D104E104F10420
:1009B00029F7209709F415CF0E94EE00882309F447
:1009C00010CF0E9400000DCF88E191E00E94E2016B
:1009D00085E891E082CFE1E1F2E01382128288EEB5
:1009E00093E0A0E0B0E084839583A683B78388E09A
:1009F00091E09183808385EC90E09587848784ECF7
:100A000090E09787868780EC90E0918B808B81ECDB
:100A100090E0938B828B82EC90E0958B848B86ECBC
:100A200090E0978B868B118E128E138E148E089504
:100A30008F929F92AF92BF92CF92DF92EF92FF92EE
:100A4000CF93DF93EC01688179818A819B81611565
:100A500071058105910521F464E279ED8BE597E05C
:100A60002DE133EF41E050E00E94BC0549015A01FD
:100A70009B01AC01A7EAB1E40E94DB056B017C019C
:100A8000ACEEB4EFA50194010E94E905C60ED71E95
:100A9000E81EF91EF7FE06C081E0C81AD108E10879
:100AA00080E8F80AC882D982EA82FB82C701B601CF
:100AB0009F77DF91CF91FF90EF90DF90CF90BF9025
:100AC000AF909F908F9008958F929F92AF92BF9218
:100AD000CF92DF92EF92FF9260910001709101013D
:100AE00080910201909103016115710581059105C5
:100AF00021F464E279ED8BE597E02DE133EF41E0FD
:100B000050E00E94BC0549015A019B01AC01A7EAD3
:100B1000B1E40E94DB056B017C01ACEEB4EFA501F2
:100B200094010E94E905C60ED71EE81EF91EF7FEC5
:100B300006C081E0C81AD108E10880E8F80AC0922E
:100B40000001D0920101E0920201F0920301C7017D
:100B5000B6019F77FF90EF90DF90CF90BF90AF905E
:100B60009F908F900895609300017093010180938E
:100B70000201909303010895052E97FB1EF4009443
:100B80000E94D30557FD07D00E94EE0507FC03D055
:100B90004EF40C94D30550954095309521953F4FD8
:100BA0004F4F5F4F089590958095709561957F4F59
:100BB0008F4F9F4F08950E941006A59F900DB49FE0
:100BC000900DA49F800D911D11240895B7FF0C94E2
:100BD000DB050E94DB05821B930B0895A1E21A2E10
:100BE000AA1BBB1BFD010DC0AA1FBB1FEE1FFF1FD1
:100BF000A217B307E407F50720F0A21BB30BE40B21
:100C0000F50B661F771F881F991F1A9469F7609567
:100C10007095809590959B01AC01BD01CF01089521
:100C2000A29FB001B39FC001A39F700D811D11242D
:100C3000911DB29F700D811D1124911D0895505872
:100C4000BB27AA270E9437060C94AA070E949C077C
:100C500038F00E94A30720F039F49F3F19F426F4DE
:100C60000C9499070EF4E095E7FB0C949307E92F99
:100C70000E94BB0758F3BA176207730784079507EA
:100C800020F079F4A6F50C94DD070EF4E0950B2E18
:100C9000BA2FA02D0B01B90190010C01CA01A001CE
:100CA0001124FF27591B99F0593F50F4503E68F129
:100CB0001A16F040A22F232F342F4427585FF3CF6A
:100CC000469537952795A795F0405395C9F77EF43B
:100CD0001F16BA0B620B730B840BBAF09150A1F084
:100CE000FF0FBB1F661F771F881FC2F70EC0BA0F0A
:100CF000621F731F841F48F4879577956795B79592
:100D0000F7959E3F08F0B0CF9395880F08F099278C
:100D1000EE0F9795879508950E946F0708F481E07C
:100D200008950E94A5060C94AA070E94A30758F0F4
:100D30000E949C0740F029F45F3F29F00C94930730
:100D400051110C94DE070C9499070E94BB0768F3BD
:100D50009923B1F3552391F3951B550BBB27AA2774
:100D600062177307840738F09F5F5F4F220F331FAE
:100D7000441FAA1FA9F335D00E2E3AF0E0E832D076
:100D800091505040E695001CCAF72BD0FE2F29D079
:100D9000660F771F881FBB1F261737074807AB074B
:100DA000B0E809F0BB0B802DBF01FF2793585F4FC0
:100DB0003AF09E3F510578F00C9493070C94DE07AF
:100DC0005F3FE4F3983ED4F3869577956795B795A2
:100DD000F7959F5FC9F7880F911D9695879597F9AD
:100DE0000895E1E0660F771F881FBB1F6217730726
:100DF0008407BA0720F0621B730B840BBA0BEE1F3B
:100E000088F7E09508950E94C30788F09F5798F0EF
:100E1000B92F9927B751B0F0E1F0660F771F881FFF
:100E2000991F1AF0BA95C9F714C0B13091F00E9419
:100E3000DD07B1E008950C94DD07672F782F882730
:100E4000B85F39F0B93FCCF3869577956795B39540
:100E5000D9F73EF490958095709561957F4F8F4FAF
:100E60009F4F0895E89409C097FB3EF490958095B4
:100E7000709561957F4F8F4F9F4F9923A9F0F92F60
:100E800096E9BB279395F695879577956795B795DE
:100E9000F111F8CFFAF4BB0F11F460FF1BC06F5FC4
:100EA0007F4F8F4F9F4F16C0882311F096E911C0D6
:100EB000772321F09EE8872F762F05C0662371F0F7
:100EC00096E8862F70E060E02AF09A95660F771F0B
:100ED000881FDAF7880F9695879597F90895990FE7
:100EE0000008550FAA0BE0E8FEEF16161706E807F4
:100EF000F907C0F012161306E407F50798F0621B15
:100F0000730B840B950B39F40A2661F0232B242BE9
:100F1000252B21F408950A2609F4A140A6958FEF08
:100F2000811D811D089597F99F6780E870E060E05A
:100F300008959FEF80EC089500240A941616170672
:100F400018060906089500240A94121613061406BA
:100F500005060895092E0394000C11F4882352F01D
:100F6000BB0F40F4BF2B11F460FF04C06F5F7F4FD5
:100F70008F4F9F4F089557FD9058440F551F59F0BC
:100F80005F3F71F04795880F97FB991F61F09F3F76
:100F900079F087950895121613061406551FF2CF9F
:100FA0004695F1DF08C0161617061806991FF1CFEF
:100FB00086957105610508940895E894BB27662716
:100FC0007727CB0197F908950E946F0708F48FEFF8
:100FD00008950E94FC070C94AA070E949C0738F011
:100FE0000E94A30720F0952311F00C9493070C9412
:100FF000990711240C94DE070E94BB0770F3959F9C
:10100000C1F3950F50E0551F629FF001729FBB27FF
:10101000F00DB11D639FAA27F00DB11DAA1F649F9B
:101020006627B00DA11D661F829F2227B00DA11D4E
:10103000621F739FB00DA11D621F839FA00D611DD4
:10104000221F749F3327A00D611D231F849F600DF5
:10105000211D822F762F6A2F11249F5750409AF01E
:10106000F1F088234AF0EE0FFF1FBB1F661F771FAA
:10107000881F91505040A9F79E3F510580F00C9475
:1010800093070C94DE075F3FE4F3983ED4F3869514
:1010900077956795B795F795E7959F5FC1F7FE2B15
:1010A000880F911D9695879597F908950E946F076F
:1010B000880B990B0895EE0FFF1F0590F491E02D1A
:0610C0000994F894FFCF33
:1010C600010000000000000024018400B10071014D
:1010D600E200C000D4000D0A006E616E00696E6603
:1010E600006F7666004D513133352050726F74654E
:1010F6007573204C6962726172792062792053613E
:101106007479616D2053696E676800436172626F1E
:101116006E2044696F78696465204C6576656C203D
:1011260070706D20762F763D0076656869636C6514
:101136007320736D6F6B652074657374696E6720B9
:101146006661696C0076656869636C657320736DAA
:101156006F6B652074657374696E67207061737355
:1011660000436172626F6E204D6F6E6F78696465C1
:10117600204C6576656C2070706D20762F763D006C
:1011860041636574616C646568796465204C657655
:10119600656C2070706D20762F763D00466F726DFF
:1011A600616C646568796465204C6576656C207051
:0811B600706D20762F763D00DC
:00000001FF
